{
  "_format": "hh-sol-artifact-1",
  "contractName": "SosRS",
  "sourceName": "contracts/SosRS.sol",
  "abi": [
    {
      "inputs": [
        {
          "internalType": "uint256",
          "name": "_id",
          "type": "uint256"
        },
        {
          "internalType": "address",
          "name": "_owner",
          "type": "address"
        },
        {
          "internalType": "uint128",
          "name": "_donationGoal",
          "type": "uint128"
        },
        {
          "internalType": "uint32",
          "name": "_deadline",
          "type": "uint32"
        },
        {
          "internalType": "bytes32",
          "name": "_campaignName",
          "type": "bytes32"
        },
        {
          "internalType": "bytes32",
          "name": "_objectivesHash",
          "type": "bytes32"
        },
        {
          "internalType": "bytes32",
          "name": "_descriptionHash",
          "type": "bytes32"
        },
        {
          "internalType": "bytes32",
          "name": "_contact",
          "type": "bytes32"
        },
        {
          "internalType": "bytes32",
          "name": "_city",
          "type": "bytes32"
        },
        {
          "internalType": "bytes32",
          "name": "_country",
          "type": "bytes32"
        },
        {
          "internalType": "bytes32",
          "name": "_imageHash",
          "type": "bytes32"
        }
      ],
      "stateMutability": "nonpayable",
      "type": "constructor"
    },
    {
      "anonymous": false,
      "inputs": [
        {
          "indexed": true,
          "internalType": "address",
          "name": "contributor",
          "type": "address"
        },
        {
          "indexed": false,
          "internalType": "uint256",
          "name": "amount",
          "type": "uint256"
        },
        {
          "indexed": false,
          "internalType": "uint256",
          "name": "timestamp",
          "type": "uint256"
        }
      ],
      "name": "DonationReceived",
      "type": "event"
    },
    {
      "anonymous": false,
      "inputs": [
        {
          "indexed": true,
          "internalType": "address",
          "name": "oldOwner",
          "type": "address"
        },
        {
          "indexed": true,
          "internalType": "address",
          "name": "newOwner",
          "type": "address"
        },
        {
          "indexed": false,
          "internalType": "uint256",
          "name": "timestamp",
          "type": "uint256"
        }
      ],
      "name": "OwnershipTransferred",
      "type": "event"
    },
    {
      "anonymous": false,
      "inputs": [
        {
          "indexed": true,
          "internalType": "address",
          "name": "recipient",
          "type": "address"
        },
        {
          "indexed": false,
          "internalType": "uint256",
          "name": "amount",
          "type": "uint256"
        },
        {
          "indexed": false,
          "internalType": "uint256",
          "name": "timestamp",
          "type": "uint256"
        }
      ],
      "name": "WithdrawExecuted",
      "type": "event"
    },
    {
      "inputs": [],
      "name": "campaignName",
      "outputs": [
        {
          "internalType": "bytes32",
          "name": "",
          "type": "bytes32"
        }
      ],
      "stateMutability": "view",
      "type": "function"
    },
    {
      "inputs": [],
      "name": "city",
      "outputs": [
        {
          "internalType": "bytes32",
          "name": "",
          "type": "bytes32"
        }
      ],
      "stateMutability": "view",
      "type": "function"
    },
    {
      "inputs": [],
      "name": "contact",
      "outputs": [
        {
          "internalType": "bytes32",
          "name": "",
          "type": "bytes32"
        }
      ],
      "stateMutability": "view",
      "type": "function"
    },
    {
      "inputs": [],
      "name": "country",
      "outputs": [
        {
          "internalType": "bytes32",
          "name": "",
          "type": "bytes32"
        }
      ],
      "stateMutability": "view",
      "type": "function"
    },
    {
      "inputs": [],
      "name": "deadline",
      "outputs": [
        {
          "internalType": "uint32",
          "name": "",
          "type": "uint32"
        }
      ],
      "stateMutability": "view",
      "type": "function"
    },
    {
      "inputs": [
        {
          "internalType": "address",
          "name": "",
          "type": "address"
        }
      ],
      "name": "deposits",
      "outputs": [
        {
          "internalType": "uint256",
          "name": "",
          "type": "uint256"
        }
      ],
      "stateMutability": "view",
      "type": "function"
    },
    {
      "inputs": [],
      "name": "descriptionHash",
      "outputs": [
        {
          "internalType": "bytes32",
          "name": "",
          "type": "bytes32"
        }
      ],
      "stateMutability": "view",
      "type": "function"
    },
    {
      "inputs": [],
      "name": "donationBalance",
      "outputs": [
        {
          "internalType": "uint256",
          "name": "",
          "type": "uint256"
        }
      ],
      "stateMutability": "view",
      "type": "function"
    },
    {
      "inputs": [],
      "name": "donationGoal",
      "outputs": [
        {
          "internalType": "uint128",
          "name": "",
          "type": "uint128"
        }
      ],
      "stateMutability": "view",
      "type": "function"
    },
    {
      "inputs": [],
      "name": "forceCampaignClosure",
      "outputs": [],
      "stateMutability": "nonpayable",
      "type": "function"
    },
    {
      "inputs": [],
      "name": "id",
      "outputs": [
        {
          "internalType": "uint256",
          "name": "",
          "type": "uint256"
        }
      ],
      "stateMutability": "view",
      "type": "function"
    },
    {
      "inputs": [],
      "name": "imageHash",
      "outputs": [
        {
          "internalType": "bytes32",
          "name": "",
          "type": "bytes32"
        }
      ],
      "stateMutability": "view",
      "type": "function"
    },
    {
      "inputs": [],
      "name": "isCampaignClosed",
      "outputs": [
        {
          "internalType": "bool",
          "name": "",
          "type": "bool"
        }
      ],
      "stateMutability": "view",
      "type": "function"
    },
    {
      "inputs": [],
      "name": "objectivesHash",
      "outputs": [
        {
          "internalType": "bytes32",
          "name": "",
          "type": "bytes32"
        }
      ],
      "stateMutability": "view",
      "type": "function"
    },
    {
      "inputs": [],
      "name": "owner",
      "outputs": [
        {
          "internalType": "address payable",
          "name": "",
          "type": "address"
        }
      ],
      "stateMutability": "view",
      "type": "function"
    },
    {
      "inputs": [
        {
          "internalType": "address payable",
          "name": "_newOwner",
          "type": "address"
        }
      ],
      "name": "transferOwnership",
      "outputs": [],
      "stateMutability": "nonpayable",
      "type": "function"
    },
    {
      "inputs": [
        {
          "internalType": "uint256",
          "name": "_amount",
          "type": "uint256"
        }
      ],
      "name": "withdraw",
      "outputs": [],
      "stateMutability": "payable",
      "type": "function"
    },
    {
      "stateMutability": "payable",
      "type": "receive"
    }
  ],
  "bytecode": "0x60c06040523480156200001157600080fd5b50604051620015e9380380620015e9833981810160405281019062000037919062000284565b8a60008190555089600160006101000a81548173ffffffffffffffffffffffffffffffffffffffff021916908373ffffffffffffffffffffffffffffffffffffffff1602179055508763ffffffff1660808163ffffffff1681525050670de0b6b3a764000089620000a99190620003c0565b6fffffffffffffffffffffffffffffffff1660a0816fffffffffffffffffffffffffffffffff168152505086600281905550856003819055508460048190555083600581905550826006819055508160078190555080600881905550505050505050505050505062000406565b600080fd5b6000819050919050565b62000130816200011b565b81146200013c57600080fd5b50565b600081519050620001508162000125565b92915050565b600073ffffffffffffffffffffffffffffffffffffffff82169050919050565b6000620001838262000156565b9050919050565b620001958162000176565b8114620001a157600080fd5b50565b600081519050620001b5816200018a565b92915050565b60006fffffffffffffffffffffffffffffffff82169050919050565b620001e281620001bb565b8114620001ee57600080fd5b50565b6000815190506200020281620001d7565b92915050565b600063ffffffff82169050919050565b620002238162000208565b81146200022f57600080fd5b50565b600081519050620002438162000218565b92915050565b6000819050919050565b6200025e8162000249565b81146200026a57600080fd5b50565b6000815190506200027e8162000253565b92915050565b60008060008060008060008060008060006101608c8e031215620002ad57620002ac62000116565b5b6000620002bd8e828f016200013f565b9b50506020620002d08e828f01620001a4565b9a50506040620002e38e828f01620001f1565b9950506060620002f68e828f0162000232565b9850506080620003098e828f016200026d565b97505060a06200031c8e828f016200026d565b96505060c06200032f8e828f016200026d565b95505060e0620003428e828f016200026d565b945050610100620003568e828f016200026d565b9350506101206200036a8e828f016200026d565b9250506101406200037e8e828f016200026d565b9150509295989b509295989b9093969950565b7f4e487b7100000000000000000000000000000000000000000000000000000000600052601160045260246000fd5b6000620003cd82620001bb565b9150620003da83620001bb565b9250828202620003ea81620001bb565b9150808214620003ff57620003fe62000391565b5b5092915050565b60805160a0516111af6200043a60003960008181610139015261080501526000818161010901526105b901526111af6000f3fe6080604052600436106101025760003560e01c8063af640d0f11610095578063e84c3ac711610064578063e84c3ac7146104ca578063ed11f46a146104f5578063f2fde38b14610520578063fc7e286d14610549578063fd0160fe14610586576102e4565b8063af640d0f14610432578063d01c20641461045d578063d8b0b49914610474578063d8e517af1461049f576102e4565b806351605d80116100d157806351605d80146103865780637d2f7190146103b157806385dcee93146103dc5780638da5cb5b14610407576102e4565b80630724fda9146102e957806329dcb0cf146103145780632e1a7d4d1461033f57806333a8c45a1461035b576102e4565b366102e4577f000000000000000000000000000000000000000000000000000000000000000063ffffffff164210158061017057507f00000000000000000000000000000000000000000000000000000000000000006fffffffffffffffffffffffffffffffff1660095410155b156101905760018060146101000a81548160ff0219169083151502179055505b600160149054906101000a900460ff16156101e0576040517f08c379a00000000000000000000000000000000000000000000000000000000081526004016101d790610b75565b60405180910390fd5b60003411610223576040517f08c379a000000000000000000000000000000000000000000000000000000000815260040161021a90610be1565b60405180910390fd5b34600a60003373ffffffffffffffffffffffffffffffffffffffff1673ffffffffffffffffffffffffffffffffffffffff16815260200190815260200160002060008282546102729190610c3a565b92505081905550346009600082825461028b9190610c3a565b925050819055503373ffffffffffffffffffffffffffffffffffffffff167f4b0304ab2f313234b1cea012339c8f8c3bf2c8bb357d81a579cfdb35d2e3d03034426040516102da929190610c7d565b60405180910390a2005b600080fd5b3480156102f557600080fd5b506102fe6105b1565b60405161030b9190610cbf565b60405180910390f35b34801561032057600080fd5b506103296105b7565b6040516103369190610cf9565b60405180910390f35b61035960048036038101906103549190610d45565b6105db565b005b34801561036757600080fd5b506103706107f7565b60405161037d9190610cbf565b60405180910390f35b34801561039257600080fd5b5061039b6107fd565b6040516103a89190610cbf565b60405180910390f35b3480156103bd57600080fd5b506103c6610803565b6040516103d39190610d9d565b60405180910390f35b3480156103e857600080fd5b506103f1610827565b6040516103fe9190610cbf565b60405180910390f35b34801561041357600080fd5b5061041c61082d565b6040516104299190610df9565b60405180910390f35b34801561043e57600080fd5b50610447610853565b6040516104549190610e14565b60405180910390f35b34801561046957600080fd5b50610472610859565b005b34801561048057600080fd5b50610489610905565b6040516104969190610cbf565b60405180910390f35b3480156104ab57600080fd5b506104b461090b565b6040516104c19190610e4a565b60405180910390f35b3480156104d657600080fd5b506104df61091e565b6040516104ec9190610cbf565b60405180910390f35b34801561050157600080fd5b5061050a610924565b6040516105179190610e14565b60405180910390f35b34801561052c57600080fd5b5061054760048036038101906105429190610e91565b61092a565b005b34801561055557600080fd5b50610570600480360381019061056b9190610efc565b610afa565b60405161057d9190610e14565b60405180910390f35b34801561059257600080fd5b5061059b610b12565b6040516105a89190610cbf565b60405180910390f35b60025481565b7f000000000000000000000000000000000000000000000000000000000000000081565b600160009054906101000a900473ffffffffffffffffffffffffffffffffffffffff1673ffffffffffffffffffffffffffffffffffffffff163373ffffffffffffffffffffffffffffffffffffffff161461066b576040517f08c379a000000000000000000000000000000000000000000000000000000000815260040161066290610f75565b60405180910390fd5b6000600954116106b0576040517f08c379a00000000000000000000000000000000000000000000000000000000081526004016106a790610fe1565b60405180910390fd5b8060095410156106f5576040517f08c379a00000000000000000000000000000000000000000000000000000000081526004016106ec9061104d565b60405180910390fd5b600160149054906101000a900460ff16610744576040517f08c379a000000000000000000000000000000000000000000000000000000000815260040161073b906110b9565b60405180910390fd5b806009600082825461075691906110d9565b925050819055503373ffffffffffffffffffffffffffffffffffffffff166108fc829081150290604051600060405180830381858888f193505050501580156107a3573d6000803e3d6000fd5b503373ffffffffffffffffffffffffffffffffffffffff167ff6c0fc94edc8fd2a37514f1fb85af88fca386b00a54127b912273e6b83322e0882426040516107ec929190610c7d565b60405180910390a250565b60055481565b60085481565b7f000000000000000000000000000000000000000000000000000000000000000081565b60045481565b600160009054906101000a900473ffffffffffffffffffffffffffffffffffffffff1681565b60005481565b600160009054906101000a900473ffffffffffffffffffffffffffffffffffffffff1673ffffffffffffffffffffffffffffffffffffffff163373ffffffffffffffffffffffffffffffffffffffff16146108e9576040517f08c379a00000000000000000000000000000000000000000000000000000000081526004016108e090610f75565b60405180910390fd5b60018060146101000a81548160ff021916908315150217905550565b60075481565b600160149054906101000a900460ff1681565b60035481565b60095481565b600160009054906101000a900473ffffffffffffffffffffffffffffffffffffffff1673ffffffffffffffffffffffffffffffffffffffff163373ffffffffffffffffffffffffffffffffffffffff16146109ba576040517f08c379a00000000000000000000000000000000000000000000000000000000081526004016109b190610f75565b60405180910390fd5b600073ffffffffffffffffffffffffffffffffffffffff168173ffffffffffffffffffffffffffffffffffffffff1603610a29576040517f08c379a0000000000000000000000000000000000000000000000000000000008152600401610a2090611159565b60405180910390fd5b6000600160009054906101000a900473ffffffffffffffffffffffffffffffffffffffff16905081600160006101000a81548173ffffffffffffffffffffffffffffffffffffffff021916908373ffffffffffffffffffffffffffffffffffffffff1602179055508173ffffffffffffffffffffffffffffffffffffffff168173ffffffffffffffffffffffffffffffffffffffff167fc13a1166d81cd3b0b352a367aebab95f3a6f6bc695fdab8e9a9d335239c3861b42604051610aee9190610e14565b60405180910390a35050565b600a6020528060005260406000206000915090505481565b60065481565b600082825260208201905092915050565b7f43616d706169676e206973206e6f206c6f6e6765722061637469766500000000600082015250565b6000610b5f601c83610b18565b9150610b6a82610b29565b602082019050919050565b60006020820190508181036000830152610b8e81610b52565b9050919050565b7f496e76616c696420646f6e6174696f6e20616d6f756e74000000000000000000600082015250565b6000610bcb601783610b18565b9150610bd682610b95565b602082019050919050565b60006020820190508181036000830152610bfa81610bbe565b9050919050565b6000819050919050565b7f4e487b7100000000000000000000000000000000000000000000000000000000600052601160045260246000fd5b6000610c4582610c01565b9150610c5083610c01565b9250828201905080821115610c6857610c67610c0b565b5b92915050565b610c7781610c01565b82525050565b6000604082019050610c926000830185610c6e565b610c9f6020830184610c6e565b9392505050565b6000819050919050565b610cb981610ca6565b82525050565b6000602082019050610cd46000830184610cb0565b92915050565b600063ffffffff82169050919050565b610cf381610cda565b82525050565b6000602082019050610d0e6000830184610cea565b92915050565b600080fd5b610d2281610c01565b8114610d2d57600080fd5b50565b600081359050610d3f81610d19565b92915050565b600060208284031215610d5b57610d5a610d14565b5b6000610d6984828501610d30565b91505092915050565b60006fffffffffffffffffffffffffffffffff82169050919050565b610d9781610d72565b82525050565b6000602082019050610db26000830184610d8e565b92915050565b600073ffffffffffffffffffffffffffffffffffffffff82169050919050565b6000610de382610db8565b9050919050565b610df381610dd8565b82525050565b6000602082019050610e0e6000830184610dea565b92915050565b6000602082019050610e296000830184610c6e565b92915050565b60008115159050919050565b610e4481610e2f565b82525050565b6000602082019050610e5f6000830184610e3b565b92915050565b610e6e81610dd8565b8114610e7957600080fd5b50565b600081359050610e8b81610e65565b92915050565b600060208284031215610ea757610ea6610d14565b5b6000610eb584828501610e7c565b91505092915050565b6000610ec982610db8565b9050919050565b610ed981610ebe565b8114610ee457600080fd5b50565b600081359050610ef681610ed0565b92915050565b600060208284031215610f1257610f11610d14565b5b6000610f2084828501610ee7565b91505092915050565b7f4f6e6c79206f776e657200000000000000000000000000000000000000000000600082015250565b6000610f5f600a83610b18565b9150610f6a82610f29565b602082019050919050565b60006020820190508181036000830152610f8e81610f52565b9050919050565b7f4e6f2062616c616e636500000000000000000000000000000000000000000000600082015250565b6000610fcb600a83610b18565b9150610fd682610f95565b602082019050919050565b60006020820190508181036000830152610ffa81610fbe565b9050919050565b7f496e73756666696369656e742062616c616e6365000000000000000000000000600082015250565b6000611037601483610b18565b915061104282611001565b602082019050919050565b600060208201905081810360008301526110668161102a565b9050919050565b7f43616d706169676e206d75737420626520636c6f736564000000000000000000600082015250565b60006110a3601783610b18565b91506110ae8261106d565b602082019050919050565b600060208201905081810360008301526110d281611096565b9050919050565b60006110e482610c01565b91506110ef83610c01565b925082820390508181111561110757611106610c0b565b5b92915050565b7f496e76616c6964206e6577206f776e6572000000000000000000000000000000600082015250565b6000611143601183610b18565b915061114e8261110d565b602082019050919050565b6000602082019050818103600083015261117281611136565b905091905056fea2646970667358221220c5734f195ba51ad11845fe0d01332b89234c98f875d2e730fbd036ec4fa6e53d64736f6c63430008180033",
  "linkReferences": {},
  "deployedLinkReferences": {}
}